:100000000C9430010C9458010C9458010C94580134
:100010000C9458010C9458010C9458010C945801FC
:100020000C9458010C9458010C9458010C945801EC
:100030000C9458010C9458010C9458010C945801DC
:100040000C94FC0E0C9458010C94E7110C941912AA
:100050000C9458010C9458010C9458010C945801BC
:100060000C9458010C945801504120506F776572E0
:1000700009203D2025530D0A00435243204C656E54
:1000800067746809203D2025530D0A004D6F646593
:100090006C0909203D2025530D0A0044617461203C
:1000A0005261746509203D2025530D0A0044594EC4
:1000B00050442F4645415455524500434F4E464902
:1000C00047090052465F53455455500052465F431E
:1000D000480900454E5F52584144445200454E5F26
:1000E0004141090052585F50575F50302D3600543F
:1000F000585F41444452090052585F414444525FA2
:1001000050322D350052585F414444525F50302DDB
:1001100031000D0A00253032780020307800255358
:1001200009203D000D0A0020307825303278002566
:100130005309203D005354415455530909203D2093
:100140003078253032782052585F44523D2578204F
:1001500054585F44533D2578204D41585F52543DDB
:1001600025782052585F505F4E4F3D2578205458D7
:100170005F46554C4C3D25780D0A0011121314159D
:10018000160A0B0C0D0E0F000102030405AB01A4AF
:10019000019C01950150415F4D41580050415F481D
:1001A0004947480050415F4C4F570050415F4D490F
:1001B0004E00C701C001B801313620626974730076
:1001C0003820626974730044697361626C6564000D
:1001D000DE01D4016E524632344C30312B006E5267
:1001E0004632344C303100FB01F501ED013235303F
:1001F0004B42505300324D42505300314D42505308
:1002000000000000080002010000030407000000D5
:1002100000000000000102040810204080010204D8
:10022000081020010204081020040404040404043B
:10023000040202020202020303030303030000009C
:100240000023002600290000000000250028002BC4
:100250000000000000240027002A00007402491258
:1002600011241FBECFEFD8E0DEBFCDBF12E0A0E06B
:10027000B1E0EEE6F0E302C005900D92A033B107C5
:10028000D9F723E0A0E3B2E001C01D92A530B20788
:10029000E1F712E0C0E6D2E004C02297FE010E941E
:1002A000A713CC35D107C9F70E948D120C943518CD
:1002B0000C940000CF93C82FE0915E02F0915F0292
:1002C0000190F081E02D682F8EE592E009958C2F4A
:1002D000992787FD9095CF91089560E070E08AE5B9
:1002E00091E00C94BB13EF92FF920F931F9326E0C3
:1002F00040E855E260E070E08EE592E00E948B11EC
:100300000E946D0180E392E00E94460D61E080E36F
:1003100092E00E94DD0C60E080E392E00E94E50C38
:1003200062E070E080E392E00E94040D60E070E023
:1003300080E392E00E94C70D60E180E392E00E94BA
:10034000C10B01E71DEC2BEA3DEC4BEA50E060E00D
:1003500070E080E392E00E94210C8CE7E82E98E6A2
:10036000F92E02E51DE424E530E040E050E061E0D4
:1003700080E392E00E945C0C80E392E00E94010E18
:100380001F910F91FF90EF900C94E80E0F931F9325
:10039000CF93DF93CDB7DEB763970FB6F894DEBF88
:1003A0000FBECDBF1B861C861D861E861F86188A23
:1003B000198A1A8A1B8A0E94C80E8C0180915202E7
:1003C0009091530208171907B9F1A801662757FD44
:1003D0006095762F4B875C876D877E8740E150E084
:1003E00062E472E0CE0101960E944C03AE01455FCB
:1003F0005F4F68E072E0CE0101960E94CC072F812A
:100400009885811113C089859A85009711F486E03B
:1004100091E09F938F938DE091E09F938F930E9443
:1004200006140F900F900F900F9006C01093530278
:1004300000935202822F02C080E090E063960FB6D4
:10044000F894DEBF0FBECDBFDF91CF911F910F910A
:100450000895CF93DF930E94C601181619060CF079
:1004600040C0C0E0D0E040E162E472E080E392E0AE
:100470000E941E0C811125C02196C430D10599F728
:100480008CE291E09F938F930E9406140F900F903F
:10049000C2E4D2E069914AE050E08EE592E00E9429
:1004A00038136BE371E08EE592E00E94DA1282E08D
:1004B000C235D80779F78AE090E0DF91CF910C94AC
:1004C0003C14C330D105E4F6DF93CF9382E291E090
:1004D0009F938F930E9406140F900F900F900F9090
:1004E000D7CFDF91CF9108954AE069E080E392E0B1
:1004F0000C94AF0BCF93CFB7F89480915402811135
:1005000027C0E3E3F2E08491EFE1F2E09491E82F79
:10051000F0E0EE0FFF1FEF5AFD4FA591B4918C91C3
:10052000892321F461E08AE00E94491061E08AE0B9
:100530000E9410108CB580618CBD8CB580648CBD20
:1005400061E08DE00E94101061E08BE00E941010CD
:10055000809154028F5F80935402CFBFCF91089552
:10056000FC01DB01718360837383628315821482D3
:100570005783468312968C911297480F511D5187CD
:10058000408713968C911397480F511D87FD5A95FC
:100590005387428781E09C91911101C080E00895CA
:1005A000FC01A281B3818C91882309F460C0CD0144
:1005B00008969383828318968C911897811108C0AE
:1005C0004681578160817181CF010E94B0024FC086
:1005D00014963C911497832F90E011965C9111979B
:1005E000452F4073403391F419962C91199720733D
:1005F000203361F412962C91129780859185821B8D
:1006000091099187808780E090E010C0252F207CA1
:1006100049F4403259F415968C911597839FC00187
:10062000112404C0203811F482E090E011962C913E
:100630001197207331F4248135812F5F3F4F35832B
:1006400024831A962C911A97AC01420F511D808574
:100650009185840F951F918780871B962C91820F1F
:10066000911D27FD9A959387828781E0089580E008
:100670000895FC01A281B3819D01240F351F3383AE
:100680002283FB01460F571FE417F50719F08191EC
:100690008D93FACF81E00895FC0189E393E0918383
:1006A0008083738362835583448317821682118605
:1006B0001086CF0108950F931F93CF93DF93EC0122
:1006C0008A01E881F981309709F12E813F81240F59
:1006D000351F8C819D818217930750F488859985F9
:1006E000009711F48DE391E09987888780E015C029
:1006F000CE01099581110AC028853985211531055A
:1007000011F429E431E03987288707C08E819F8161
:10071000800F911F9F838E8381E0DF91CF911F9186
:100720000F9108952F923F924F925F926F927F9216
:100730008F929F92AF92BF92CF92DF92EF92FF92F1
:100740000F931F93CF93DF93CDB7DEB72A970FB6E2
:10075000F894DEBF0FBECDBF7C01B22F932E842E46
:10076000752E662E472E98014B2F592D682D772D0B
:10077000862D942DAFE70E94991309F020F4098388
:1007800041E050E030C0CE0101966C01212C312CAB
:10079000902F9068592EF60191936F0198014B2F7D
:1007A000592D682D772D862D942D07E00E947D13FD
:1007B0008901B42F952E862E772E682E492E510151
:1007C000FFEFAF1ABF0AA0E00E94991311F01501C4
:1007D000DFCFE1E0F0E0EC0FFD1FE20DF31D852D12
:1007E0008F778083A501BE016F5F7F4FC7010E9495
:1007F0005B032A960FB6F894DEBF0FBECDBFDF9124
:10080000CF911F910F91FF90EF90DF90CF90BF900D
:10081000AF909F908F907F906F905F904F903F90A0
:100820002F9008958F929F92AF92BF92CF92DF92B6
:10083000EF92FF920F931F93FA01DB0114962C9114
:10084000213019F48080912C04C0223029F480805A
:100850009180A12CB12C06C0243041F4808091807D
:10086000A280B380C12CD12C76011AC0283049F463
:1008700080809180A280B380C480D580E680F7809C
:100880000FC0FC01208531852115310511F422E5C9
:1008900031E0DC0119963C932E93189780E006C056
:1008A00084019501A601B7010E9492031F910F9147
:1008B000FF90EF90DF90CF90BF90AF909F908F9080
:1008C00008950F931F93CF93FA01DB0114962C9197
:1008D000213059F40081102F110F110B212F312FCE
:1008E000C12FB12FA12F712F38C0223059F411819F
:1008F0000081212F220F220B322FC22FB22FA22FC5
:10090000722F2BC0243079F4408151816281738130
:100910008A019B01770F440B542FBA01C42FB42FC7
:10092000A42F742F1AC0283049F40081118122812C
:100930003381C481B581A68177810FC0FC012085F8
:1009400031852115310511F422E531E0DC011996DC
:100950003C932E93189780E005C04C2F5B2F6A2F95
:100960000E949203CF911F910F910895DF92EF9211
:10097000FF920F931F93CF93DF93FC01D22EE32EB0
:10098000F42ED52FC62FB72F98014D2D5E2D6F2D2C
:100990007D2F8C2F9B2FA0E00E94991364F401E01F
:1009A0000E94621320953095409550956095709502
:1009B000809590950AC098014D2D5E2D6F2D7D2F4D
:1009C0008C2F9B2F01E00E94621389019A01AB01D9
:1009D000BC01CF010E949203DF91CF911F910F9133
:1009E000FF90EF90DF9008950F931F93CF93FA013C
:1009F000DB0114962C91213059F40081102F110F36
:100A0000110B212F312FC12FB12FA12F712F38C0E2
:100A1000223059F411810081212F220F220B322F15
:100A2000C22FB22FA22F722F2BC0243079F4408115
:100A30005181628173818A019B01770F440B542F8E
:100A4000BA01C42FB42FA42F742F1AC0283049F430
:100A50000081118122813381C481B581A681778192
:100A60000FC0FC01208531852115310511F422E5E7
:100A700031E0DC0119963C932E93189780E005C075
:100A80004C2F5B2F6A2F0E94B604CF911F910F91BC
:100A90000895CF93DF9300D000D0CDB7DEB7FB0130
:100AA000508141813281238159834A833B832C8346
:100AB00044E050E0BE016F5F7F4F0E945B030F90E8
:100AC0000F900F900F90DF91CF910895BA010C9481
:100AD0004905AF92BF92CF92DF92EF92FF920F93B0
:100AE0001F93CF93DF93CDB7DEB728970FB6F89457
:100AF000DEBF0FBECDBFDC01FB011081A180B28043
:100B0000C380D480E580F680E7811983212F3A2DB8
:100B10004B2D5C2D6D2D7E2D8F2D9E2F08E00E947C
:100B20007D132A83212F3A2D4B2D5C2D6D2D7E2D8B
:100B30008F2D9E2F00E10E947D132B83212F3A2DB4
:100B40004B2D5C2D6D2D7E2D8F2D9E2F08E10E944B
:100B50007D132C83212F3A2D4B2D5C2D6D2D7E2D59
:100B60008F2D9E2F00E20E947D132D83212F3A2D81
:100B70004B2D5C2D6D2D7E2D8F2D9E2F08E20E941A
:100B80007D132E83212F3A2D4B2D5C2D6D2D7E2D27
:100B90008F2D9E2F00E30E947D132F83212F3A2D4E
:100BA0004B2D5C2D6D2D7E2D8F2D9E2F08E30E94E9
:100BB0007D13288748E050E0BE016F5F7F4FCD0175
:100BC0000E945B0328960FB6F894DEBF0FBECDBF20
:100BD000DF91CF911F910F91FF90EF90DF90CF9019
:100BE000BF90AF900895BA010C9469058F929F92BF
:100BF000AF92BF92CF92DF92EF92FF920F931F932B
:100C0000FC01DB0149015A01A50160E070E080E0D0
:100C100090E003E00E94621389019A014D010A2BC2
:100C20001929AB01BC01CF010E9492031F910F91C2
:100C3000FF90EF90DF90CF90BF90AF909F908F90FC
:100C40000895FB0121812F702330B9F098F02430F2
:100C500029F0283030F462E070E011C061E070E00B
:100C60000EC0FC01208531852115310571F424E683
:100C700031E00BC060E070E002C065E070E0208110
:100C800030E040E050E00C94F605FC01318720870D
:100C900080E008952F923F924F925F926F927F92E1
:100CA0008F929F92AF92BF92CF92DF92EF92FF927C
:100CB0000F931F93CF93DF93CDB7DEB72B970FB66C
:100CC000F894DEBF0FBECDBF7C016B015A01DB0182
:100CD00011963C91232F207C203409F41DC120382B
:100CE00011F0211133C181E08B87832F8F7090E049
:100CF000FC01EE0FFF1FEA50FE4F40805180F601CD
:100D00004381442331F0F501E40FF11D47FDFA95CD
:100D100002C0FE013B96203849F4D501AD90BC904D
:100D200041E0A114B10409F440E04B873073303145
:100D3000B9F018F4332339F0E2C03032B1F0303377
:100D400009F4CCC0DCC0A114B10409F0CCC0F70197
:100D500080859185009709F000C187E791E0FDC08B
:100D60008081882309F4DFC0BEC08080912C81146B
:100D7000910409F4D8C0203881F0D60115962C9141
:100D800030E02815390548F4F701808591850097F2
:100D900009F0E3C08EE891E0E0C005970CF073C065
:100DA000F601208130E040E050E062E070E0C701F1
:100DB0000E94F605882309F4D5C0D60111968C91BE
:100DC0008F70833031F43401660C771C660C771C0D
:100DD00029C0843039F43401A3E0660C771CAA954D
:100DE000E1F720C0FE0131961F018AE0DF011D926C
:100DF0008A95E9F78501612C712CA801B601C10122
:100E0000F2010995882309F4ADC0D60114968C919E
:100E1000080F111DBFEF6B1A7B0A6814790468F381
:100E20006F807884830120E030E040E050E060E0B3
:100E300070E0C7010E949203882309F493C0F70170
:100E400080819181892B51F4A30160E070E0C7019A
:100E50000E945B03882309F485C065C000E010E0B0
:100E6000A501B601C701F2010995882309F47AC0EA
:100E7000D60114968C91A80EB11C0F5F1F4F081558
:100E8000190570F350C000E010E0B601C7010E94E0
:100E90002106882309F466C0F6018181982F907C91
:100EA0009038D1F48F7090E005970297A8F4D5019F
:100EB0004D915C91B601C701F2010995882309F4AF
:100EC00051C0D60114968C91A80EB11C0F5F1F4F14
:100ED00008151905D0F227C0A501ECCF9081D601E5
:100EE0008C91981320C0B601C7010E942106882367
:100EF000C9F1A501B601C701F201099534C0D701B6
:100F000018968D919C911997009711F484E691E0C1
:100F1000F7019187808726C04E5F5F4FD501ED9125
:100F2000FC91309711F481E01EC009958111FBCF2F
:100F3000F701208531852115310511F426EA31E0CC
:100F4000D70119963C932E9318970DC0FC0180850C
:100F50009185009711F484E691E0D70119969C934E
:100F60008E93189780E02B960FB6F894DEBF0FBED5
:100F7000CDBFDF91CF911F910F91FF90EF90DF9048
:100F8000CF90BF90AF909F908F907F906F905F9029
:100F90004F903F902F900895EF92FF920F931F93E1
:100FA000CF93DF93CDB7DEB72C970FB6F894DEBFA3
:100FB0000FBECDBF7C01CE0101960E94B00281110F
:100FC00002C081E041C06B817C81FB0181818F7017
:100FD00049855A85883071F5FA0100811181011522
:100FE000110569F1F801A081B1811296ED91FC9192
:100FF0001397309721F0B801C701099513C01496D3
:101000006D917C911597FB018181807C803821F462
:10101000A8014E5F5F4F03C0F80142815381C701B1
:101020000E944A06811102C080E00EC0F8010481CE
:101030001581D5CFC7010E944A068823A9F3CE01A6
:1010400001960E94D002BBCF2C960FB6F894DEBF5B
:101050000FBECDBFDF91CF911F910F91FF90EF9009
:101060000895CF92DF92EF92FF920F931F93CF9349
:10107000DF93EC016B017A018A0120E030E040E06F
:1010800050E060E070E00E949203882369F0A701BD
:10109000B601CE01DF91CF911F910F91FF90EF909C
:1010A000DF90CF900C945B0380E0DF91CF911F9194
:1010B0000F91FF90EF90DF90CF900895FB01BA0160
:1010C00044812181207C203811F050E002C04FEF94
:1010D0005FEF6115710561F0FB0120E030E024173E
:1010E000350741F0A191AA2329F02F5F3F4FF7CF99
:1010F00020E030E0A9010C943108FA01309729F47E
:1011000040E050E060E070E01FC0DB0111962C91E0
:101110001197207C4081211113C0242F30E02F5FD4
:101120003F4F14966C9170E06217730748F4FC010E
:10113000208531852115310549F425EB31E006C0C4
:1011400050E0BF016F5F7F4F0C943108DC011996AE
:101150003C932E93189780E008956F927F928F9220
:101160009F92AF92BF92CF92DF92EF92FF920F9336
:101170001F93CF93DF93CDB7DEB72A970FB6F894BE
:10118000DEBF0FBECDBF7C014B013A01CE010196FF
:101190005C018AE0F50111928A95E9F7C5010E9488
:1011A000CC07811104C029853A85F70154C0CF804E
:1011B000D884860120E030E040E050E060E070E05C
:1011C000C7010E949203882309F451C0F7012081CE
:1011D00031812115310539F4A60160E070E0C701C5
:1011E0000E945B0344C0F701868197818C0D9D1D91
:1011F000448155814817590750F48085918500979F
:1012000011F48DE391E0F701918780872FC03A8335
:101210002983F701828193819C838B83DE82CD8237
:1012200018861F821A861986A301B401C5010E947F
:10123000CC074F815885F70126813781240F351F50
:10124000378326832B813C813383228329853A850A
:101250004C155D0519F43187208709C0211531052A
:1012600011F429EC31E0F7013187208780E02A96DC
:101270000FB6F894DEBF0FBECDBFDF91CF911F91A7
:101280000F91FF90EF90DF90CF90BF90AF909F9025
:101290008F907F906F900895FB0166817781611533
:1012A000710549F4FC01208531852115310529F4AA
:1012B0002DED31E002C00C94AD08FC013187208790
:1012C00080E008958EBD00000DB407FEFDCF8EB501
:1012D00008952CB52F7D2CBD2CB5237F2CBD2CB5AE
:1012E0002C7F2CBD2DB521602DBDFC0181810E947C
:1012F000491085E090E00C94A30FFC01808191815E
:1013000089130C944910089560E00C94690961E018
:101310000C946909CF92DF92EF92FF920F931F9383
:10132000CF93DF9300D01F92CDB7DEB78C01F22EA2
:101330004A835B8369830E9484096981862F8F7148
:101340000E946209E82E4A81C42E5B81D52EF40EDC
:10135000FC1439F08FEF0E946209F60181936F014E
:10136000F7CFC8010E9487098E2D0F900F900F9024
:10137000DF91CF911F910F91FF90EF90DF90CF9071
:101380000895EF92FF921F93CF93DF931F92CDB7F3
:10139000DEB77C0169830E9484096981862F8F7181
:1013A0000E9462098FEF0E946209182FC7010E94F4
:1013B0008709812F0F90DF91CF911F91FF90EF90C0
:1013C0000895CF92DF92EF92FF920F931F93CF93E6
:1013D000DF9300D01F92CDB7DEB78C01F22E4A8387
:1013E0005B8369830E9484096981862F8F71806283
:1013F0000E946209E82E4A81C42E5B81D52EF40E2C
:10140000FC1431F0F60181916F010E946209F8CF5E
:10141000C8010E9487098E2D0F900F900F90DF91C9
:10142000CF911F910F91FF90EF90DF90CF90089593
:10143000EF92FF921F93CF93DF9300D0CDB7DEB72B
:101440007C014A8369830E9484096981862F8F7198
:1014500080620E946209182F4A81842F0E946209CB
:10146000C7010E948709812F0F900F90DF91CF91C4
:101470001F91FF90EF900895AF92BF92DF92EF928D
:10148000FF920F931F93CF93DF9300D01F92CDB79E
:10149000DEB78C01FC01E580F42EE41608F4FE2C86
:1014A000F8018681811102C0EF1801C0E12CC8014A
:1014B00029836A837B830E9484092981822F0E9469
:1014C0006209D82E6A81A62E7B81B72EF60EFA14F9
:1014D00031F0F50181915F010E946209F8CFEE20A1
:1014E00029F080E00E946209EA94F9CFC8010E94C5
:1014F00087098D2D0F900F900F90DF91CF911F9145
:101500000F91FF90EF90DF90BF90AF900895EF9212
:10151000FF921F93CF93DF931F92CDB7DEB77C016D
:1015200069830E9484096981862F0E946209182FAD
:10153000C7010E948709812F0F90DF91CF911F91E2
:10154000FF90EF90089562EE0C94870A61EE0C9480
:10155000870A6FEF0C94870A862F90E0262F217060
:101560001F922F9395958795877099279F938F93B7
:1015700064FB882780F91F928F9365FB882780F989
:101580001F928F9366FB882780F91F928F931F927B
:101590006F9385E391E09F938F930E941A148DB708
:1015A0009EB70E960FB6F8949EBF0FBE8DBF0895DE
:1015B000CF92DF92EF92FF920F931F93CF93DF931F
:1015C0001F92CDB7DEB78C01F22E7F936F93EFE2BF
:1015D000F1E0FF93EF9349830E941A144981F40EBE
:1015E0000F900F900F900F9037E2C32E31E0D32E63
:1015F0004F1599F0EE24E394E40E642FC8010E9485
:10160000C1091F928F93DF92CF920E941A140F90FC
:101610000F900F900F904E2DEBCF84E291E09F93AF
:101620008F930E941A140F900F900F90DF91CF911B
:101630001F910F91FF90EF90DF90CF9008952F9220
:101640003F924F925F926F927F928F929F92AF9252
:10165000BF92CF92DF92EF92FF920F931F93CF939F
:10166000DF931F92CDB7DEB77C01322E4DB65EB64A
:101670007F936F938EE191E09F938F9349830E94B4
:101680001A143981330E0F900F900F900F904AE18A
:10169000C42E41E0D42E55E1A52E51E0B52E3315D0
:1016A000E9F16DB67EB6F7012485822E912C8DB7B7
:1016B0009EB7881999090FB6F8949EBF0FBE8DBFCB
:1016C0000DB71EB70F5F1F4F22242394230EA801CE
:1016D000632FC7010E948A09DF92CF920E941A14D9
:1016E000800E911E0F900F90F1E08F1A91088016D6
:1016F000910668F0F40180811F928F93BF92AF92A0
:101700000E941A140F900F900F900F90EDCF0FB60C
:10171000F8947EBE0FBE6DBE322DC1CF82E191E046
:101720009F938F930E941A140F900F900FB6F89406
:101730005EBE0FBE4DBE0F90DF91CF911F910F91F6
:10174000FF90EF90DF90CF90BF90AF909F908F90E1
:101750007F906F905F904F903F902F900895FC0185
:1017600060834183148280E28583168285E08487CA
:1017700017820895462F6E3708F04DE765E00C9408
:10178000180A613208F060E2FC0165830895CF9386
:10179000DF93EC0160E00E94C10981FD12C060E0AE
:1017A000CE010E94C109482F426060E0CE010E9434
:1017B000180A65E070E080E090E0DF91CF910C9432
:1017C000690FDF91CF9108950F93CF93DF93EC01D1
:1017D000222311F020EB01C020EACE010E943C0A36
:1017E000002339F061E0CE01DF91CF910F910C948D
:1017F0007D09DF91CF910F9108950F93CF93DF93E0
:10180000EC0101E00E94E40BCE010E94A90A807362
:10181000D9F360E0CE010E947D0940E767E0CE0188
:101820000E94180A84FF05C0CE010E94A60A80E02B
:1018300001C081E0DF91CF910F91089520E00C94D9
:10184000FD0BEF92FF920F931F93CF93DF93CDB7D2
:10185000DEB728970FB6F894DEBF0FBECDBF7C0170
:1018600009831A832B833C834D835E836F83788740
:10187000FC012485AE014F5F5F4F6AE00E94E109E1
:10188000F7012485AE014F5F5F4F60E1C7010E9401
:10189000E109F701458161E1C7010E94180A289614
:1018A0000FB6F894DEBF0FBECDBFDF91CF911F9171
:1018B0000F91FF90EF900895BF92CF92DF92EF9239
:1018C000FF920F931F93CF93DF93CDB7DEB7289787
:1018D0000FB6F894DEBF0FBECDBF6C01B62EE98205
:1018E000FA820B831C832D833E834F8358876111BB
:1018F0000AC0FC01448550E0BE016F5F7F4F079630
:101900000E94AB1307C0F6E0F61708F436C081E07A
:10191000681308C0EB2DF0E0EF57FE4F6491F6011D
:10192000248506C0E62FF0E0EF57FE4F649121E0DA
:10193000AE014F5F5F4FC6010E94E1090B2D10E021
:10194000F801E558FE4F6491F6014581C6010E94F9
:10195000180A62E0C6010E94C109F801E957FE4F6A
:10196000049121E030E001C0220F0A95EAF7822BB2
:10197000482F62E0C6010E94180A28960FB6F89414
:10198000DEBF0FBECDBFDF91CF911F910F91FF90B2
:10199000EF90DF90CF90BF900895CF93DF93EC014D
:1019A0000E94840980E50E94620983E70E9462091F
:1019B000CE01DF91CF910C948709662311F04FE39C
:1019C00001C040E061E00C94180A1F93CF93DF93AD
:1019D000EC01162F66E00E94C109887F143020F4C4
:1019E000612F660F6F5F01C067E0462F482B66E0EE
:1019F000CE01DF91CF911F910C94180A66E00E94EE
:101A0000C109867086950895EF92FF920F931F93F8
:101A1000CF93DF931F92CDB7DEB77C018B0166E0D9
:101A20000E94C109582F577D0230110531F45062D0
:101A30000BE910E020E030E00DC00130110529F085
:101A400005E510E020E030E005C0586001E410E05A
:101A500020E030E0F701058716872787308B452F78
:101A600066E0C70159830E94180A66E0C7010E9418
:101A7000C10991E05981851390E0892F0F90DF9182
:101A8000CF911F910F91FF90EF9008951F93CF93E7
:101A9000DF93EC0188819981891719F061E00E9438
:101AA000101089819881981719F061E00E94101038
:101AB0000E947A0260E0CE010E947D0961E0CE01C1
:101AC0000E94690965E070E080E090E00E94690F83
:101AD0004CE060E0CE010E94180A4FE564E0CE01C0
:101AE0000E94180A62E070E0CE010E94040D882373
:101AF00011F081E08C8366E0CE010E94C109182FAD
:101B000060E070E0CE010E94040DCE010E94CD0C79
:101B100040E06DE1CE010E94180A40E06CE1CE0188
:101B20000E94180A40E767E0CE010E94180A6CE4A0
:101B3000CE010E94BA0BCE010E94A30ACE010E94E0
:101B4000A60ACE010E94C70B60E0CE010E94C10927
:101B5000482F4E7F60E0CE010E94180A115081E0AC
:101B60001E3F08F080E0DF91CF911F91089566E05D
:101B70000E94C109282F2872203231F081E090E0C4
:101B8000283021F080E0089582E090E008950F93DE
:101B90001F93CF93DF93EC018B0160E00E94C1099A
:101BA000482F437F0115110531F00130110511F463
:101BB000486001C04C6060E0CE01DF91CF911F9181
:101BC0000F910C94180A1F93CF93DF93EC0160E000
:101BD0000E94C109182F61E0CE010E94C10913FDC6
:101BE00002C0882329F012FF06C082E090E005C001
:101BF00080E090E002C081E090E0DF91CF911F9102
:101C00000895CF93DF93EC010E94A90A682FCE01BB
:101C10000E94AC0A22E04AE065E071E0CE010E9439
:101C20001F0B24E04CE068EF70E0CE010E94D80A60
:101C300021E040E16FEE70E0CE010E941F0B26E034
:101C400041E164EE70E0CE010E94D80A21E041E05B
:101C50006DED70E0CE010E94D80A21E042E063ED14
:101C600070E0CE010E94D80A21E045E06CEC70E003
:101C7000CE010E94D80A21E046E063EC70E0CE017C
:101C80000E94D80A21E040E06BEB70E0CE010E9498
:101C9000D80A22E04CE16DEA70E0CE010E94D80A39
:101CA000CE010E94B70D880F991F89519E4FFC01EC
:101CB000859194919F938F938BE990E09F938F935D
:101CC0000E941A14EC81F0E0EE0FFF1FE053FE4F6C
:101CD000859194919F938F938CE890E09F938F933D
:101CE0000E941A14CE010E94E30D880F991F8E5492
:101CF0009E4FFC01859194919F938F9389E790E08B
:101D00009F938F930E941A14CE010E94FE0CE82F1D
:101D1000F0E0EE0FFF1FE357FE4F859194919F93E4
:101D20008F9388E690E09F938F930E941A148DB74B
:101D30009EB740960FB6F8949EBF0FBE8DBFDF9141
:101D4000CF91089561E087E00E9449108CE090E017
:101D50000E94A30F60E087E00C944910CF93DF93BB
:101D600086E00E947F10EC018CE090E00E94A30FBF
:101D700061E088E00E9449108CE090E00E94A30F8F
:101D800060E088E00E944910CE01DF91CF91089574
:101D90000F931F93CF93DF930E94A20EC0E0D0E079
:101DA00000E010E00E94AE0E0C2E02C0880F991FBA
:101DB0000A94E2F7082B192B2196C031D10591F72F
:101DC000C80180959095DF91CF911F910F91089553
:101DD00061E087E00E94101061E088E00E9410102E
:101DE00060E086E00E94101061E087E00E944910E8
:101DF00061E088E00C9449101F920F920FB60F9289
:101E000011242F933F938F939F93AF93BF93809110
:101E1000560290915702A0915802B0915902309108
:101E2000550226E0230F2D3720F40296A11DB11D87
:101E300005C029E8230F0396A11DB11D209355026B
:101E40008093560290935702A0935802B093590280
:101E500080915A0290915B02A0915C02B0915D0268
:101E60000196A11DB11D80935A0290935B02A0932D
:101E70005C02B0935D02BF91AF919F918F913F91B2
:101E80002F910F900FBE0F901F9018953FB7F894A9
:101E900080915A0290915B02A0915C02B0915D0228
:101EA00026B5A89B05C02F3F19F00196A11DB11DB5
:101EB0003FBF6627782F892F9A2F620F711D811DD2
:101EC000911D43E0660F771F881F991F4A95D1F730
:101ED00008958F929F92AF92BF92CF92DF92EF922E
:101EE000FF926B017C010E94460F4B015C01C11403
:101EF000D104E104F104F1F00E943F130E94460F67
:101F0000681979098A099B09683E73408105910522
:101F100070F321E0C21AD108E108F10888EE880EBA
:101F200083E0981EA11CB11CC114D104E104F1048A
:101F300029F7DDCFFF90EF90DF90CF90BF90AF906B
:101F40009F908F9008958330910528F0880F991FF6
:101F500004970197F1F70895789484B5826084BD61
:101F600084B5816084BD85B5826085BD85B581609D
:101F700085BDEEE6F0E0808181608083E1E8F0E0FD
:101F80001082808182608083808181608083E0E82C
:101F9000F0E0808181608083E1EBF0E0808184600B
:101FA0008083E0EBF0E0808181608083EAE7F0E00D
:101FB00080818460808380818260808380818E7F45
:101FC00080838081806880831092C100089583306F
:101FD00081F028F4813099F08230A1F008958730A3
:101FE000A9F08830B9F08430D1F4809180008F7DE1
:101FF00003C0809180008F7780938000089584B51E
:102000008F7702C084B58F7D84BD08958091B00024
:102010008F7703C08091B0008F7D8093B0000895CA
:10202000CF93DF9390E0FC01EB5EFD4F2491FC0128
:10203000E75DFD4F8491882349F190E0880F991F57
:10204000FC01EF5AFD4FA591B491895B9D4FFC01B6
:10205000C591D4919FB7611108C0F8948C912095D7
:1020600082238C93888182230AC0623051F4F894D1
:102070008C91322F309583238C938881822B888397
:1020800004C0F8948C91822B8C939FBFDF91CF91E9
:1020900008950F931F93CF93DF931F92CDB7DEB7B1
:1020A000282F30E0F901EF5FFD4F8491F901EB5EDD
:1020B000FD4F1491F901E75DFD4F04910023C9F034
:1020C000882321F069830E94E70F6981E02FF0E007
:1020D000EE0FFF1FE95BFD4FA591B4919FB7F894F8
:1020E0008C91611103C01095812301C0812B8C93C9
:1020F0009FBF0F90DF91CF911F910F910895CF93C4
:10210000DF93282F30E0F901EF5FFD4F8491F90153
:10211000EB5EFD4FD491F901E75DFD4FC491CC23F7
:1021200091F081110E94E70FEC2FF0E0EE0FFF1FFE
:10213000E35CFD4FA591B4912C912D2381E090E0BB
:1021400021F480E002C080E090E0DF91CF9108951B
:10215000FC01818D228D90E0805C9F4F821B910954
:102160008F7399270895FC01918D828D981731F016
:10217000828DE80FF11D858D90E008958FEF9FEF20
:102180000895FC01918D828D981761F0828DDF0199
:10219000A80FB11D5D968C91928D9F5F9F73928F5A
:1021A00090E008958FEF9FEF08958FE392E1892BE0
:1021B00049F080E090E0892B29F00E943F128111C4
:1021C0000C9400000895FC01848DDF01A80FB11D5F
:1021D000A35ABF4F2C91848D90E001968F7399275D
:1021E000848FA689B7892C93A089B1898C9180644A
:1021F0008C93938D848D981306C00288F389E02D0B
:1022000080818F7D80830895CF93DF93EC01888D4B
:102210008823C9F0EA89FB89808185FD05C0A889EA
:10222000B9898C9186FD0FC00FB607FCF5CF808170
:1022300085FFF2CFA889B9898C9185FFEDCFCE01BA
:102240000E94E310E7CFDF91CF910895CF92DF9204
:10225000FF920F931F93CF93DF931F92CDB7DEB7FB
:102260006C0181E0D60158968C9358975B969C91AF
:102270005B975C968C915C97981307C05096ED9194
:10228000FC915197808185FD2EC0F601038D10E0F1
:102290000F5F1F4F0F731127F02EF601848DF81278
:1022A00011C00FB607FCF9CFD6015096ED91FC9105
:1022B0005197808185FFF1CFC60169830E94E310A9
:1022C0006981EBCF838DE80FF11DE35AFF4F6083E7
:1022D000D6015B960C935B975296ED91FC915397C8
:1022E000808180620CC0D6015696ED91FC91579783
:1022F00060835096ED91FC9151978081806480833A
:1023000081E090E00F90DF91CF911F910F91FF90AE
:10231000DF90CF900895BF92CF92DF92EF92FF921D
:10232000CF93DF93EC016A017B01B22E60E874E881
:102330008EE190E0A70196010E94401321503109DF
:10234000410951095695479537952795E889F989A7
:1023500082E08083211580E1380798F0E889F989C7
:10236000108260E472E48FE090E0A70196010E9481
:102370004013215031094109510956954795379528
:102380002795EC85FD853083EE85FF852083188EAB
:10239000EC89FD89B082EA89FB8980818061808334
:1023A000EA89FB89808188608083EA89FB89808152
:1023B00080688083EA89FB8980818F7D8083DF91BB
:1023C000CF91FF90EF90DF90CF90BF9008951F9234
:1023D0000F920FB60F9211242F938F939F93EF9329
:1023E000FF93E0916E02F0916F028081E0917402A0
:1023F000F091750282FD12C09081809177028F5F0B
:102400008F7320917802821751F0E0917702F0E00B
:10241000E25AFD4F958F8093770201C08081FF9132
:10242000EF919F918F912F910F900FBE0F901F9062
:1024300018951F920F920FB60F9211242F933F936E
:102440004F935F936F937F938F939F93AF93BF93BC
:10245000EF93FF938EE592E00E94E310FF91EF91DE
:10246000BF91AF919F918F917F916F915F914F91AC
:102470003F912F910F900FBE0F901F9018958EE5F2
:1024800092E00E94A81021E0892B09F420E0822F1D
:102490000895109261021092600288EE93E0A0E02D
:1024A000B0E08093620290936302A0936402B093C1
:1024B000650284E292E090935F0280935E0285EC75
:1024C00090E090936B0280936A0284EC90E090938A
:1024D0006D0280936C0280EC90E090936F02809389
:1024E0006E0281EC90E0909371028093700282EC16
:1024F00090E0909373028093720286EC90E0909348
:1025000075028093740210927702109278021092F2
:10251000790210927A02089508950E94AC0F0E94E9
:102520008C120E947301C5EDD0E10E942902209710
:10253000E1F30E94D510F9CFCF92DF92EF92FF9294
:102540000F931F93CF93DF937C016A01EB0100E0AF
:1025500010E00C151D0571F06991D701ED91FC910A
:102560000190F081E02DC7010995892B19F00F5FCB
:102570001F4FEFCFC801DF91CF911F910F91FF90B7
:10258000EF90DF90CF9008956115710581F0DB0128
:102590000D900020E9F7AD0141505109461B570B42
:1025A000DC01ED91FC910280F381E02D099480E043
:1025B00090E008950C94C4128F929F92AF92BF92B4
:1025C000DF92EF92FF920F931F93CF93DF93CDB7DC
:1025D000DEB7A1970FB6F894DEBF0FBECDBF7C016A
:1025E000F42FD52ECB0119A2223008F42AE08E0157
:1025F0000F5D1F4F822E912CA12CB12C6F2F7D2DA2
:10260000A50194010E944013F22FD32ECA0101505C
:1026100011096A3014F4E0E301C0E7E3E60FD801E2
:10262000EC93232B242B252B49F7B801C7010E94DB
:10263000C412A1960FB6F894DEBF0FBECDBFDF91D6
:10264000CF911F910F91FF90EF90DF90BF90AF90CF
:102650009F908F9008952115310541F4DC01ED9193
:10266000FC910190F081E02D642F09940C94DC1210
:102670009A01462F50E060E070E00C942B1308950F
:10268000A1E21A2EAA1BBB1BFD010DC0AA1FBB1F76
:10269000EE1FFF1FA217B307E407F50720F0A21BE8
:1026A000B30BE40BF50B661F771F881F991F1A9455
:1026B00069F760957095809590959B01AC01BD017F
:1026C000CF0108950F93083090F0982F872F762F21
:1026D000652F542F432F322F22270850F4CF220F7B
:1026E000331F441F551F661F771F881F991F0A95A8
:1026F000B2F70F91089597FB10F8169400080F9306
:10270000083098F00850232F342F452F562F672F6D
:10271000782F892F902DF4CF0594979587957795ED
:10272000679557954795379527950A95AAF70F917D
:1027300008950024A7FD00942A1730054005500590
:1027400060057005800590050895EE0FFF1F059048
:10275000F491E02D0994FB01DC0102C001900D927F
:1027600041505040D8F70895DC0101C06D934150AD
:102770005040E0F708950F931F93CF93DF93EC0140
:102780008B01009731F46115710519F480E090E038
:1027900038C06EE070E081E090E00E941516FC0108
:1027A0000097A1F380E883830115110571F0138769
:1027B000028781E883838091FB029091FC02892B40
:1027C00021F4F093FC02E093FB022097C9F0D1873B
:1027D000C0878381826083838091FD029091FE0295
:1027E000892B71F4F093FE02E093FD028091FF02C9
:1027F00090910003892B21F4F0930003E093FF02F2
:10280000CF01DF91CF911F910F910895A0E0B0E02B
:10281000ECE0F4E10C940E18FE0135966191719193
:10282000AF018091FD029091FE020E944314E2E00C
:102830000C942A18A0E0B0E0E0E2F4E10C940C184B
:10284000FE013796619171910DEF12E0D8018D91E3
:102850009C91DC0113962C911397286013962C936E
:10286000AF010E944314D801ED91FC912381277F91
:102870002383E4E00C9428186091FD027091FE021D
:102880000E946E170895ACE0B0E0E9E4F4E10C9426
:10289000FE177C016B018A01FC011782168283817D
:1028A00081FFBDC1CE0101964C01F7019381F60174
:1028B00093FD859193FF81916F01882309F4ABC14A
:1028C000853239F493FD859193FF81916F018532B3
:1028D00029F4B70190E00E946E17E7CF512C312CFC
:1028E00020E02032A0F48B3269F030F4803259F0CD
:1028F000833269F420612CC08D3239F0803339F491
:10290000216026C02260246023C0286021C027FDEA
:1029100027C030ED380F3A3078F426FF06C0FAE0D1
:102920005F9E300D1124532E13C08AE0389E300D67
:102930001124332E20620CC08E3221F426FD6BC18F
:10294000206406C08C3611F4206802C0883641F439
:10295000F60193FD859193FF81916F018111C1CFA4
:10296000982F9F7D9554933028F40C5F1F4FFFE301
:10297000F9830DC0833631F0833771F0833509F068
:102980005BC022C0F801808189830E5F1F4F442401
:102990004394512C540115C03801F2E06F0E711CA4
:1029A000F801A080B18026FF03C0652D70E002C051
:1029B0006FEF7FEFC5012C870E9463172C01830105
:1029C0002C852F77222E17C03801F2E06F0E711C74
:1029D000F801A080B18026FF03C0652D70E002C021
:1029E0006FEF7FEFC5012C870E9458172C012C85B3
:1029F0002068222E830123FC1BC0832D90E0481603
:102A00005906B0F4B70180E290E00E946E173A9444
:102A1000F4CFF50127FC859127FE81915F01B70175
:102A200090E00E946E1731103A94F1E04F1A51086D
:102A30004114510471F7E5C0843611F0893639F537
:102A4000F80127FF07C060817181828193810C5F4B
:102A50001F4F08C060817181882777FD8095982F6E
:102A60000E5F1F4F2F76B22E97FF09C0909580956D
:102A7000709561957F4F8F4F9F4F2068B22E2AE04F
:102A800030E0A4010E94A017A82EA81844C08537E2
:102A900029F42F7EB22E2AE030E025C0F22FF97FF4
:102AA000BF2E8F36C1F018F4883579F0B4C0803766
:102AB00019F0883721F0AFC02F2F2061B22EB4FE5D
:102AC0000DC08B2D8460B82E09C024FF0AC09F2F33
:102AD0009660B92E06C028E030E005C020E130E065
:102AE00002C020E132E0F801B7FE07C060817181C9
:102AF000828193810C5F1F4F06C06081718180E0ED
:102B000090E00E5F1F4FA4010E94A017A82EA818E6
:102B1000FB2DFF77BF2EB6FE0BC02B2D2E7FA514ED
:102B200050F4B4FE0AC0B2FC08C02B2D2E7E05C0A6
:102B30007A2C2B2D03C07A2C01C0752C24FF0DC0DC
:102B4000FE01EA0DF11D8081803311F4297E09C058
:102B500022FF06C07394739404C0822F867809F014
:102B6000739423FD13C020FF06C05A2C731418F46D
:102B7000530C5718732C731468F4B70180E290E07B
:102B80002C870E946E1773942C85F5CF731410F464
:102B9000371801C0312C24FF12C0B70180E390E048
:102BA0002C870E946E172C8522FF17C021FF03C0BF
:102BB00088E590E002C088E790E0B7010CC0822F62
:102BC000867859F021FD02C080E201C08BE227FD2A
:102BD0008DE2B70190E00E946E17A51438F4B7019A
:102BE00080E390E00E946E175A94F7CFAA94F40104
:102BF000EA0DF11D8081B70190E00E946E17A110CF
:102C0000F5CF332009F451CEB70180E290E00E9465
:102C10006E173A94F6CFF7018681978102C08FEF45
:102C20009FEF2C96E2E10C941A180F931F93CF9309
:102C3000DF93869F8001879F100D969F100D1124B2
:102C4000C8010E943116EC01009729F0A80160E04C
:102C500070E00E94B413CE01DF91CF911F910F91CC
:102C60000895CF93DF938230910510F482E090E0D5
:102C7000E0910303F091040320E030E0A0E0B0E035
:102C8000309739F14081518148175907B8F04817FA
:102C9000590771F482819381109729F013969C93C0
:102CA0008E9312972CC0909304038093030327C044
:102CB0002115310531F04217530718F0A901DB0146
:102CC00001C0EF019A01BD01DF010280F381E02D17
:102CD000D7CF21153105F9F0281B390B24303105E8
:102CE00080F48A819B816115710521F0FB0193833A
:102CF000828304C09093040380930303FE01329601
:102D000044C0FE01E20FF31F8193919322503109D9
:102D1000398328833AC02091010330910203232B89
:102D200041F420910201309103013093020320937A
:102D3000010320910001309101012115310541F479
:102D40002DB73EB74091040150910501241B350B6E
:102D5000E0910103F0910203E217F307A0F42E1BA8
:102D60003F0B2817390778F0AC014E5F5F4F2417EF
:102D7000350748F04E0F5F1F509302034093010345
:102D80008193919302C0E0E0F0E0CF01DF91CF9119
:102D90000895CF93DF93009709F487C0FC01329721
:102DA00013821282C0910303D0910403209781F40F
:102DB00020813181280F391F8091010390910203F6
:102DC0008217930779F5F0930203E09301036DC036
:102DD000DE0120E030E0AE17BF0750F412964D91AF
:102DE0005C9113979D014115510509F1DA01F3CF6B
:102DF000B383A28340815181840F951F8A179B075B
:102E000071F48D919C911197840F951F0296918377
:102E1000808312968D919C911397938382832115C1
:102E2000310529F4F0930403E09303033EC0D90174
:102E30001396FC93EE9312974D915D91A40FB51FDD
:102E4000EA17FB0779F480819181840F951F029620
:102E5000D90111969C938E938281938113969C93B2
:102E60008E931297E0E0F0E08A819B81009719F041
:102E7000FE01EC01F9CFCE01029628813981820F43
:102E8000931F20910103309102032817390769F439
:102E9000309729F4109204031092030302C01382A6
:102EA0001282D0930203C0930103DF91CF91089562
:102EB000FC010590615070400110D8F78095909505
:102EC0008E0F9F1F0895FC0161507040019001100A
:102ED000D8F7809590958E0F9F1F08950F931F939D
:102EE000CF93DF93182F092FEB018B8181FD03C056
:102EF0008FEF9FEF20C082FF10C04E815F812C8139
:102F00003D81421753077CF4E881F9819F012F5FCF
:102F10003F4F39832883108306C0E885F985812FC8
:102F20000995892B29F72E813F812F5F3F4F3F83E2
:102F30002E83812F902FDF91CF911F910F910895B4
:102F4000FA01AA27283051F1203181F1E8946F93DA
:102F50006E7F6E5F7F4F8F4F9F4FAF4FB1E03ED080
:102F6000B4E03CD0670F781F891F9A1FA11D680F1E
:102F7000791F8A1F911DA11D6A0F711D811D911D51
:102F8000A11D20D009F468943F912AE0269F1124C6
:102F90003019305D3193DEF6CF010895462F47702A
:102FA000405D4193B3E00FD0C9F7F6CF462F4F7085
:102FB000405D4A3318F0495D31FD4052419302D0E3
:102FC000A9F7EACFB4E0A695979587957795679589
:102FD000BA95C9F700976105710508959B01AC0189
:102FE0000A2E06945795479537952795BA95C9F7B0
:102FF000620F731F841F951FA01D08952F923F928B
:103000004F925F926F927F928F929F92AF92BF92F8
:10301000CF92DF92EF92FF920F931F93CF93DF93A4
:10302000CDB7DEB7CA1BDB0B0FB6F894DEBF0FBE01
:10303000CDBF09942A88398848885F846E847D844E
:103040008C849B84AA84B984C884DF80EE80FD8050
:103050000C811B81AA81B981CE0FD11D0FB6F894C6
:0E306000DEBF0FBECDBFED010895F894FFCF87
:10306E00000005038000286E6F6E652900456E63B3
:10307E006F64696E67206661696C65643A202573BA
:10308E000A00545820282564293A200041424F5204
:10309E0054494E4720545820212121200073747228
:1030AE0065616D2066756C6C00696F206572726F5C
:1030BE007200696E76616C696420646174615F731D
:1030CE00697A6500696E76616C6964206669656C03
:1030DE00642074797065006D697373696E67207210
:1030EE0065717569726564206669656C64006172EC
:1030FE00726179206D61782073697A6520657863D5
:10310E0065656465640063616C6C6261636B206508
:10311E0072726F720062797465732073697A6520BA
:10312E006578636565646564007375626D736720A9
:10313E0073697A65206368616E67656400696E768F
:10314E00616C6964206669656C6420646573637282
:10315E006970746F720061041204F4046605F3055D
:10316E007D085E084C09000001000000040000000C
:10317E00021301FF04000000000000000000000028
:10318E000000000026119C12A810C110B3100411EB
:00000001FF
